:100000000C942E010C945F010C945F010C945F0121
:100010000C945F010C945F010C945F010C945F01E0
:100020000C945F010C945F010C945F010C945F01D0
:100030000C945F010C945F010C945F010C945F01C0
:100040000C945F010C945F010C945F010C945F01B0
:100050000C945F010C945F010C945F010C94A0055B
:100060000C945F010C946A050C9440050C945F019C
:100070000C945F010C945F010C945F010C945F0180
:100080000C945F010C945F010C945F010C945F0170
:100090000C945F010C945F010C945F010C945F0160
:1000A0000C945F010C945F010C945F010C945F0150
:1000B0000C945F010C945F010C945F010C945F0140
:1000C0000C945F010C945F010C945F010C945F0130
:1000D0000C945F010C945F010C945F010C945F0120
:1000E0000C945F010C9426030C94CE010C94340301
:1000F0000C9428020C940D030C94BF010C94F6028E
:100100000C94AE030C9415030C9442030C941C0342
:100110000C94F0010C94E2010C9411030C944C0328
:100120000C9448030C9475020C9430030C94EA056B
:100130000C942C030C9422030C94AD030C9419031F
:100140000C943E030C9412050C943A030C94920107
:100150000C94FB0200000A0B02090C0D0E080703A9
:10016000040100000000000000000000000000008A
:10017000000000000000000000000000000000007F
:10018000121110000000000000000000000000003C
:100190000000000000000000000000002200250018
:1001A00028002B002E003100340002010000050160
:1001B00008010B0100002100240027002A002D0067
:1001C0003000330001010000040107010A010505A8
:1001D0000505070508080808020202020A0A0808BD
:1001E00004040404010101010101010103030303EB
:1001F00003030303040707070C0C0C0C0C0C0C0C7A
:100200000202020206060606060606060B0B0B0B8A
:100210000B0B0B0B010210202008081020401020AF
:1002200040800201020108040201010204081020BA
:1002300040808040201008040201800402018040B8
:100240002010080402010804020101020408102021
:1002500040800102040810204080EA0511241FBEDE
:10026000CFEFD1E2DEBFCDBF00E00CBF23E0A4E3BF
:10027000B2E001C01D92AF34B207E1F712E0A0E096
:10028000B2E0E6EDFFE100E00BBF02C007900D9287
:10029000A433B107D9F711E0CEE2D1E000E006C007
:1002A00021970109802FFE010E94CB0DCD32D1078D
:1002B00080E00807A9F70E9459070C94E90F0C94F5
:1002C000000090E0FC01EC5EFD4F249182539E4FB4
:1002D000FC018491882399F090E0880F991FFC011C
:1002E000EC54FE4FA591B491FC01E656FE4F85916A
:1002F00094918FB7F894EC91E22BEC938FBF089513
:10030000FC01248135816217730720F4808191817B
:10031000009729F410923D028DE392E00895860F34
:10032000971F0895AF92BF92CF92DF92EF92FF9204
:100330000F931F93CF93DF936C017B018B01040F0D
:10034000151FEB015E01AE18BF08C017D10759F0A9
:100350006991D601ED91FC910190F081E02DC601EB
:100360001995892B79F7C501DF91CF911F910F91D5
:10037000FF90EF90DF90CF90BF90AF900895FC0179
:10038000538D448D252F30E0842F90E0821B930BFA
:10039000541710F0CF96089501970895FC01918DA0
:1003A000828D981761F0A28DAE0FBF2FB11D5D96A3
:1003B0008C91928D9F5F9F73928F90E008958FEF45
:1003C0009FEF0895FC01918D828D981731F0828DF9
:1003D000E80FF11D858D90E008958FEF9FEF089550
:1003E000FC01918D228D892F90E0805C9F4F821BB4
:1003F00091098F73992708958EE392E00E94F0018E
:1004000021E0892B09F420E0822F0895FC01A48DBE
:10041000A80FB92FB11DA35ABF4F2C91848D90E026
:1004200001968F739927848FA689B7892C93A08909
:10043000B1898C91837080648C93938D848D981393
:1004400006C00288F389E02D80818F7D8083089526
:10045000EF92FF920F931F93CF93DF93EC0181E014
:10046000888F9B8D8C8D98131AC0E889F9898081BB
:1004700085FF15C09FB7F894EE89FF896083E889EE
:10048000F98980818370806480839FBF81E090E0E0
:10049000DF91CF911F910F91FF90EF900895F62E6D
:1004A0000B8D10E00F5F1F4F0F731127E02E8C8D07
:1004B0008E110CC00FB607FCFACFE889F98980814C
:1004C00085FFF5CFCE010E940602F1CFEB8DEC0F38
:1004D000FD2FF11DE35AFF4FF0829FB7F8940B8F69
:1004E000EA89FB8980818062CFCFCF93DF93EC01D3
:1004F000888D8823B9F0AA89BB89E889F9898C910C
:1005000085FD03C0808186FD0DC00FB607FCF7CFC7
:100510008C9185FFF2CF808185FFEDCFCE010E94C7
:100520000602E9CFDF91CF91089580E090E0892B1A
:1005300029F00E94FC0181110E94000080E090E0FF
:10054000892B49F080E090E0892B29F00E9400007F
:1005500081110E94000080E090E0892B49F080E04A
:1005600090E0892B29F00E94000081110E94000078
:1005700080E090E0892B49F080E090E0892B29F021
:100580000E94000081110C9400000895282F30E093
:10059000F901EC5AFE4F9491F901EC5EFD4F449144
:1005A00022533E4FF9012491222309F435C09923A7
:1005B00011F191509231F8F4E92FF0E08827EC51D5
:1005C000FD4F8F4F0C94CB0D15031903F6020D034D
:1005D0001103FB021C03220326032C033003340304
:1005E0003A033E03FB02420348034C038091800020
:1005F0008F7780938000E22FF0E0EE0FFF1FE6562A
:10060000FE4FA591B4918FB7F894EC91611148C059
:1006100040954E234C938FBF0895809180008F7D2D
:10062000E8CF80918000877FE4CF84B58F7784BD49
:10063000E2CF84B58F7DFBCF8091B0008F77809320
:10064000B000D9CF8091B0008F7DF9CF809190001C
:100650008F7780939000CFCF809190008F7DF9CFDE
:1006600080919000877FF5CF8091A0008F77809355
:10067000A000C1CF8091A0008F7DF9CF8091A00014
:10068000877FF5CF809120018F7780932001B3CFB2
:10069000809120018F7DF9CF80912001877FF5CF58
:1006A0004E2BB8CF3FB7F8948091390290913A021F
:1006B000A0913B02B0913C0226B5A89B05C02F3FFC
:1006C00019F00196A11DB11D3FBFBA2FA92F982F78
:1006D0008827BC01CD01620F711D811D911D42E073
:1006E000660F771F881F991F4A95D1F708958F923B
:1006F0009F92AF92BF92CF92DF92EF92FF920E94B1
:1007000052034B015C0188E8C82E83E1D82EE12C0E
:10071000F12C0E945203681979098A099B09683EE5
:10072000734081059105A8F321E0C21AD108E108C0
:10073000F10888EE880E83E0981EA11CB11CC1143C
:10074000D104E104F10429F7FF90EF90DF90CF90FE
:10075000BF90AF909F908F900895089590E080E0B3
:100760000895CF92DF92EF92FF920F931F93CF9352
:10077000DF931F921F92CDB7DEB769834A83880F3C
:10078000991F0091310310913203000F111FEBEDFF
:10079000F2E09F012B5D32402017310714F41192D3
:1007A000F8CF2981FC01E552FD4F21838A818083A6
:1007B00060E080912F030E94C6021016110604F516
:1007C00001501109F801E552FD4FE080D0902D0352
:1007D000C0902B0388E0F82E6E2D661F6627661FDB
:1007E0008C2D0E94C602EE0C61E08D2D0E94C60287
:1007F00060E08D2D0E94C602FA94F110EDCFDDCF9E
:1008000061E080912F030F900F90DF91CF911F91A6
:100810000F91FF90EF90DF90CF900C94C602209143
:10082000310330913203821793073CF440E06111A9
:1008300001C041E06CE00C94B1030895EF92FF9287
:100840001F93CF93DF9320913103309132038217AE
:100850009307B4F4EC0123E0880F991F2A95E1F780
:100860009C0125513D4F790111E0F70111927F0163
:1008700040E0612FCE010E94B1031F5F1930A9F73C
:10088000DF91CF911F91FF90EF9008952091310358
:10089000309132038217930724F444E06AE00C9409
:1008A000B1030895209131033091320382179307E9
:1008B000BCF4FC0123E0EE0FFF1F2A95E1F7E60FE1
:1008C000F71F20E830E002C0359527954A95E2F7FA
:1008D000E552FD4F4089422B408B6F5F0C94B10372
:1008E0000895CF93DF93EC0160E08E810E94C602F1
:1008F00061E08E810E94C60260E08E810E94C60285
:100900008BE891E00197F1F7DF91CF910895CF92B5
:10091000DF92EF92FF920F931F93CF93DF936C01BF
:100920007C0187E0E80EF11CD0E0C0E0062F10E06B
:10093000B8010C2E02C0759567950A94E2F76170B4
:10094000F70181917F010E94C6022196C430D10532
:1009500079F7C601DF91CF911F910F91FF90EF9032
:10096000DF90CF900C947104CF92DF92EF92FF92C0
:100970000F931F93CF93DF93EC01F62E642F8C819E
:100980000E94C6028D818F3F19F060E00E94C6026E
:100990000F2D10E08F8584FF25C06E0187E0C80E03
:1009A000D11CF12CE12CB8010E2C02C07595679575
:1009B0000A94E2F76170F60181916F010E94C6020C
:1009C000FFEFEF1AFF0A88E0E816F10461F7CE01A5
:1009D000DF91CF911F910F91FF90EF90DF90CF901B
:1009E0000C947104B80184E0759567958A95E1F7D8
:1009F000CE010E9487046F2DCE01DF91CF911F9110
:100A00000F91FF90EF90DF90CF900C94870440E01F
:100A100061E083E393E00E94B4048BE39FE10197DC
:100A2000F1F7089541E00E94B40481E090E0089558
:100A30000F931F93CF93DF93EC01888199810097E7
:100A400059F02A813B812617370730F081E0DF918A
:100A5000CF911F910F9108958B016F5F7F4F0E947F
:100A6000F80E009759F0998388831B830A832C81A1
:100A70003D81232B59F7FC011082E8CF80E0E7CFBE
:100A80001F920F920FB60F9211240BB60F922F9355
:100A90003F934F935F936F937F938F939F93AF9306
:100AA000BF93EF93FF938EE392E00E940602FF91C3
:100AB000EF91BF91AF919F918F917F916F915F91D6
:100AC0004F913F912F910F900BBE0F900FBE0F9043
:100AD0001F9018951F920F920FB60F9211240BB60C
:100AE0000F922F938F939F93EF93FF93E0914E027A
:100AF000F0914F028081E0915402F091550282FD05
:100B00001DC09081809157028F5F8F732091580292
:100B1000821741F0E0915702F0E0E25CFD4F958FC3
:100B200080935702FF91EF919F918F912F910F909A
:100B30000BBE0F900FBE0F901F9018958081F2CFC3
:100B40001F920F920FB60F9211242F933F938F9302
:100B50009F93AF93BF938091350290913602A091FD
:100B60003702B09138023091340223E0230F2D3741
:100B700058F50196A11DB11D2093340280933502D2
:100B800090933602A0933702B093380280913902D5
:100B900090913A02A0913B02B0913C020196A11DB6
:100BA000B11D8093390290933A02A0933B02B09317
:100BB0003C02BF91AF919F918F913F912F910F90E8
:100BC0000FBE0F901F90189526E8230F0296A11DC7
:100BD000B11DD2CFCF93DF93109241021092400209
:100BE00088EE93E0A0E0B0E080934202909343024D
:100BF000A0934402B09345028AE092E090933F02B2
:100C000080933E0285EC90E090934B0280934A02E1
:100C100084EC90E090934D0280934C0280EC90E045
:100C200090934F0280934E0281EC90E0909351029A
:100C30008093500282EC90E0909353028093520292
:100C400086EC90E0909355028093540210925702E4
:100C5000109258021092590210925A0210923603C2
:100C6000109235038CE192E0909334038093330328
:100C70008EE3809337038FEF809338038FE3809365
:100C8000390380E480933A0391E490933B0392E428
:100C900090933C0393E490933D0310923E03109293
:100CA0003F0310924003109241031092420391E0DF
:100CB00090934603109247038093480380E180930A
:100CC000490380E580934A038EE30E94610180918D
:100CD00038038F3F11F00E946101809139030E9417
:100CE0006101C3E3D3E09E0123533340809142036B
:100CF00084FD0AC084E090E02196281739073CF46F
:100D00008E810E946101EFCF88E090E0F5CF8BE308
:100D10009DE00197F1F760E0809137030E94C602E1
:100D200060E0809139030E94C602809138038F3FB2
:100D300019F060E00E94C6026091420364FD97C012
:100D400063E083E393E00E948704CBE4D6E4CE0122
:100D50000197F1F763E083E393E00E948704219712
:100D6000F1F763E083E393E00E94870483E592E078
:100D70000197F1F762E083E393E00E9487046091BA
:100D80004203606240E083E393E00E94B40484E0A5
:100D90008093430340E06CE083E393E00E94B4045B
:100DA0000E94070582E08093440340E066E083E30D
:100DB00093E00E94B404CDE0D0E0D0932C03C09324
:100DC0002B038BE090E090932E0380932D038CE017
:100DD00090E09093300380932F0384E090E0909311
:100DE0003203809331038DE00E94610180912D03D5
:100DF0000E94610180912F030E94610161E0809156
:100E00002F030E94C602D0932C03C0932B03EBEE5A
:100E1000F2E0119283E0EB32F807D9F7D0E0C0E0BE
:100E20008091310390913203C817D9070CF03EC06E
:100E300040E06FE0CE010E94B103809131039091B8
:100E40003203C817D9072CF447E06BE0CE010E94AB
:100E5000B10340E069E0CE010E94B103CE010E94DF
:100E60001E0461E0CE010E940F042196D9CF60627A
:100E700040E083E393E00E94B4048BE496E401979E
:100E8000F1F760914203606240E083E393E00E94E7
:100E9000B40483E592E00197F1F760914203606248
:100EA00040E083E393E00E94B40469CFDF91CF91E7
:100EB0000895CF93DF93CDB7DEB72C970FB6F89494
:100EC000DEBF0FBECDBF789484B5826084BD84B58B
:100ED000816084BD85B5826085BD85B5816085BD35
:100EE00080916E00816080936E00109281008091ED
:100EF0008100826080938100809181008160809375
:100F00008100809180008160809380008091B10099
:100F100084608093B1008091B00081608093B000C4
:100F20008091910082608093910080919100816016
:100F300080939100809190008160809390008091D7
:100F4000A10082608093A1008091A10081608093C4
:100F5000A1008091A00081608093A0008091210178
:100F60008260809321018091210181608093210121
:100F70008091200181608093200180917A008460BB
:100F800080937A0080917A00826080937A008091C9
:100F90007A00816080937A0080917A0080688093E3
:100FA0007A001092C100E0914E02F0914F0282E06F
:100FB0008083E0914A02F0914B021082E0914C0252
:100FC000F0914D028FEC808310925602E091520214
:100FD000F091530286E08083E0915002F09151023B
:100FE000808180618083E0915002F0915102808184
:100FF00088608083E0915002F09151028081806886
:101000008083E0915002F091510280818F7D808336
:1010100044E050E064E272E083E393E00E949201D6
:1010200060E090E080E00E940F0490E080E00E9489
:10103000460490E080E00E941E0460E081E090E0C1
:101040000E940F0481E090E00E94460481E090E05D
:101050000E941E0460E082E090E00E940F0482E0A3
:1010600090E00E94460482E090E00E941E0460E04E
:1010700083E090E00E940F0483E090E00E94460429
:1010800083E090E00E941E040E94070549E050E0C2
:1010900069E272E083E393E00E94920118861F8266
:1010A0001A8619861C861B8670E060E0CE010796C2
:1010B0000E9418052F813885811133C02115310513
:1010C00019F0C9010E946F0E18861F821C861B86AC
:1010D0001A8619868EE392E00E94F001892BD1F3E3
:1010E0008EE392E00E94CE018B3619F189831A8239
:1010F0000B851C850F5F1F4FB801CE0107960E941C
:101100001805882339F32F8138858B859C85BE018E
:101110006F5F7F4F820F931F0E94E20F1C870B8728
:10112000D9CF1C861B8668E272E0C9010E94E20FDB
:10113000D1CF4B855C856F8178858EE392E00E94EC
:1011400092010E9407054B855C856F81788583E35A
:1011500093E00E9492011A8219821C821B821E82D5
:101160001D820F81188501151105B9F0EB84FC84EF
:10117000B701CE0101960E94180529813A8181119B
:101180004FC02115310519F0C9010E946F0E1A8256
:1011900019821E821D821C821B8210E000E0F12C4D
:1011A000E12C8D819E818017910708F45CC1B80104
:1011B000CE0101960E948001FC0180810F5F1F4FCC
:1011C0008D3209F4CCC08E3591F5B801CE0101966F
:1011D0000E948001FC018081823309F49AC2B80127
:1011E000CE0101960E948001FC018081833309F4C5
:1011F00010C3B801CE0101960E948001FC018081DC
:10120000843309F48EC3B801CE0101960E94800197
:10121000FC018081853309F024C485E090E023C47B
:10122000FE82ED82B801C9010E94E20FB6CF883775
:1012300009F0B7CFB801CE0101960E948001FC01F0
:1012400080818B3251F0B801CE0101960E9480015D
:10125000FC0180818D3209F0A4CFEF2809F483C00E
:1012600050E040E070E060E090E080E00E945204D6
:1012700041E050E061E070E090E080E00E945204C4
:1012800042E050E062E070E090E080E00E945204B2
:1012900043E050E063E070E090E080E00E945204A0
:1012A00044E050E064E070E090E080E00E9452048E
:1012B00045E050E065E070E090E080E00E9452047C
:1012C00046E050E066E070E090E080E00E9452046A
:1012D00047E050E067E070E090E080E00E94520458
:1012E00050E040E070E060E083E090E00E94520453
:1012F00041E050E061E070E083E090E00E94520441
:1013000042E050E062E070E083E090E00E9452042E
:1013100043E050E063E070E083E090E00E9452041C
:1013200044E050E064E070E083E090E00E9452040A
:1013300045E050E065E070E083E090E00E945204F8
:1013400046E050E066E070E083E090E00E945204E6
:1013500047E050E067E070E083E090E082C0EE2478
:10136000E394F12C1ECF50E040E067E070E081E0B4
:1013700090E00E94520441E050E066E070E081E0BD
:1013800090E00E94520442E050E065E070E081E0AD
:1013900090E00E94520443E050E064E070E081E09D
:1013A00090E00E94520444E050E063E070E081E08D
:1013B00090E00E94520445E050E062E070E081E07D
:1013C00090E00E94520446E050E061E070E081E06D
:1013D00090E00E94520447E050E070E060E081E05D
:1013E00090E00E94520450E040E067E070E082E04C
:1013F00090E00E94520441E050E066E070E082E03C
:1014000090E00E94520442E050E065E070E082E02B
:1014100090E00E94520443E050E064E070E082E01B
:1014200090E00E94520444E050E063E070E082E00B
:1014300090E00E94520445E050E062E070E082E0FB
:1014400090E00E94520446E050E061E070E082E0EB
:1014500090E00E94520447E050E070E060E082E0DB
:1014600090E00E9452040E94770360E090E080E0E8
:101470000E940F0460E081E090E00E940F0460E0B1
:1014800082E090E00E940F0460E083E090E00E9420
:101490000F0490E080E00E94460481E090E00E940A
:1014A000460482E090E00E94460483E090E00E94BF
:1014B000460490E080E00E941E0481E090E00E94DB
:1014C0001E0482E090E00E941E0483E090E00E94EF
:1014D0001E0489819A81009711F00E946F0E0E946C
:1014E00077038F819885009711F00E946F0E0E94FC
:1014F0009502CACD47E050E067E070E090E080E000
:101500000E94520446E050E067E070E090E080E026
:101510000E94520445E050E066E070E090E080E018
:101520000E94520444E050E065E070E090E080E00A
:101530000E94520443E050E064E070E090E080E0FC
:101540000E94520442E050E063E070E090E080E0EE
:101550000E94520441E050E062E070E090E080E0E0
:101560000E94520450E040E061E070E090E080E0D2
:101570000E94520450E040E067E070E081E090E0BB
:101580000E94520441E050E067E070E081E090E0AA
:101590000E94520442E050E066E070E081E090E09A
:1015A0000E94520443E050E065E070E081E090E08A
:1015B0000E94520444E050E064E070E081E090E07A
:1015C0000E94520445E050E063E070E081E090E06A
:1015D0000E94520446E050E062E070E081E090E05A
:1015E0000E94520447E050E061E070E081E090E04A
:1015F00038CF049709F037CF50E040E067E070E063
:1016000082E090E00E94520450E040E066E070E02A
:1016100082E090E00E94520450E040E065E070E01B
:1016200082E090E00E94520441E050E064E070E00B
:1016300082E090E00E94520442E050E063E070E0FB
:1016400082E090E00E94520443E050E062E070E0EB
:1016500082E090E00E94520444E050E061E070E0DB
:1016600082E090E00E94520445E050E070E060E0CB
:1016700082E090E00E94520446E050E070E060E0BA
:1016800082E090E00E94520447E050E070E060E0A9
:1016900082E090E00E94520447E050E067E070E092
:1016A00083E090E00E94520447E050E066E070E082
:1016B00083E090E00E94520447E050E065E070E073
:1016C00083E090E00E94520446E050E064E070E065
:1016D00083E090E00E94520445E050E063E070E057
:1016E00083E090E00E94520444E050E062E070E049
:1016F00083E090E00E94520443E050E061E070E03B
:1017000083E090E00E94520442E050E070E060E02C
:1017100031C2EF2809F4EECE47E050E070E060E01F
:1017200082E090E00E94520446E050E070E060E009
:1017300082E090E00E94520445E050E061E070E0F9
:1017400082E090E00E94520444E050E062E070E0E9
:1017500082E090E00E94520443E050E063E070E0D9
:1017600082E090E00E94520442E050E064E070E0C9
:1017700082E090E00E94520441E050E065E070E0B9
:1017800082E090E00E94520450E040E066E070E0A9
:1017900082E090E00E94520450E040E070E060E09F
:1017A00083E090E00E94520441E050E070E060E08D
:1017B00083E090E00E94520442E050E061E070E07B
:1017C00083E090E00E94520443E050E062E070E069
:1017D00083E090E00E94520444E050E063E070E057
:1017E00083E090E00E94520445E050E064E070E045
:1017F00083E090E00E94520446E050E065E070E033
:1018000083E090E00E94520447E050E066E070E020
:10181000A3CDEF2809F032C150E040E067E070E06E
:1018200081E090E00E94520441E050E067E070E007
:1018300081E090E00E94520442E050E066E070E0F7
:1018400081E090E00E94520443E050E065E070E0E7
:1018500081E090E00E94520444E050E064E070E0D7
:1018600081E090E00E94520445E050E063E070E0C7
:1018700081E090E00E94520446E050E062E070E0B7
:1018800081E090E00E94520447E050E061E070E0A7
:1018900081E090E00E94520447E050E070E060E098
:1018A00081E090E00E94520450E040E067E070E088
:1018B00082E090E00E94520450E040E066E070E078
:1018C00082E090E00E94520441E050E065E070E068
:1018D00082E090E00E94520442E050E064E070E058
:1018E00082E090E00E94520443E050E063E070E048
:1018F00082E090E00E94520444E050E062E070E038
:1019000082E090E00E94520445E050E061E070E027
:1019100082E090E00E94520446E050E070E060E017
:1019200096CDEF2809F068CE50E040E070E060E02E
:1019300090E080E00E94520450E040E061E070E0FE
:1019400090E080E00E94520450E040E062E070E0ED
:1019500090E080E00E94520441E050E063E070E0DB
:1019600090E080E00E94520442E050E064E070E0C9
:1019700090E080E00E94520443E050E065E070E0B7
:1019800090E080E00E94520444E050E066E070E0A5
:1019900090E080E00E94520445E050E067E070E093
:1019A00090E080E00E94520446E050E067E070E082
:1019B00090E080E00E94520447E050E067E070E071
:1019C00090E080E00E94520447E050E070E060E068
:1019D00081E090E00E94520447E050E061E070E056
:1019E00081E090E00E94520447E050E062E070E045
:1019F00081E090E00E94520446E050E063E070E035
:101A000081E090E00E94520445E050E064E070E024
:101A100081E090E00E94520444E050E065E070E014
:101A200081E090E00E94520443E050E066E070E004
:101A300081E090E00E94520442E050E067E070E0F4
:101A400081E090E00E94520441E050E067E070E0E5
:101A500081E090E00E94520450E040E067E070E0D6
:101A6000C5CD90E080E0EF2809F4FDCC82309105EF
:101A700009F452CE8330910509F0BBCD47E050E028
:101A800067E070E090E080E00E94520446E050E0A1
:101A900067E070E090E080E00E94520445E050E092
:101AA00066E070E090E080E00E94520444E050E084
:101AB00065E070E090E080E00E94520443E050E076
:101AC00064E070E090E080E00E94520442E050E068
:101AD00063E070E090E080E00E94520441E050E05A
:101AE00062E070E090E080E00E94520450E040E04C
:101AF00061E070E090E080E00E94520450E040E03D
:101B000070E060E090E080E00E94520447E050E026
:101B100067E070E083E090E00E94520447E050E00C
:101B200066E070E083E090E00E94520446E050E0FE
:101B300065E070E083E090E00E94520445E050E0F0
:101B400064E070E083E090E00E94520444E050E0E2
:101B500063E070E083E090E00E94520443E050E0D4
:101B600062E070E083E090E00E94520442E050E0C6
:101B700061E070E083E090E00E94520441E050E0B8
:101B800070E060E083E090E00E94520450E040E0AA
:101B900070E060E0E1CBEE0FFF1F881F8BBF079066
:101BA000F691E02D19940F931F93CF93DF9382301A
:101BB000910510F482E090E0E0914D03F0914E0326
:101BC00030E020E0B0E0A0E0309799F42115310535
:101BD00009F44AC0281B390B24303105D8F58A8115
:101BE0009B816115710589F1FB0193838283FE015D
:101BF00011C0408151810281138148175907E0F0DB
:101C00004817590799F4109761F012960C931297A0
:101C100013961C933296CF01DF91CF911F910F91B4
:101C2000089500934D0310934E03F4CF2115310511
:101C300051F04217530738F0A901DB019A01BD01A9
:101C4000DF01F801C1CFEF01F9CF90934E038093EC
:101C50004D03CDCFFE01E20FF31F819391932250EC
:101C6000310939832883D7CF20914B0330914C031E
:101C7000232B41F4209102023091030230934C0354
:101C800020934B0320910002309101022115310570
:101C900041F42DB73EB74091040250910502241B38
:101CA000350BE0914B03F0914C03E217F307A0F4DE
:101CB0002E1B3F0B2817390778F0AC014E5F5F4FA2
:101CC0002417350748F04E0F5F1F50934C03409385
:101CD0004B03819391939FCFF0E0E0E09CCFCF93B3
:101CE000DF930097E9F0FC01329713821282A091F2
:101CF0004D03B0914E03ED0130E020E01097A1F4C8
:101D000020813181820F931F20914B0330914C032E
:101D10002817390709F061C0F0934C03E0934B0397
:101D2000DF91CF910895EA01CE17DF07E8F54A81E8
:101D30005B819E0141155105B1F7E901FB83EA83FF
:101D400049915991C40FD51FEC17FD0761F48081AB
:101D500091810296840F951FE9019983888382817E
:101D600093819B838A83F0E0E0E012968D919C91B1
:101D700013970097B9F52D913C911197CD010296DB
:101D8000820F931F20914B0330914C032817390782
:101D900039F6309751F510924E0310924D03B093DF
:101DA0004C03A0934B03BCCFD383C28340815181AA
:101DB000840F951FC817D90761F44E5F5F4F888164
:101DC0009981480F591F518340838A819B81938356
:101DD00082832115310509F0B0CFF0934E03E093D3
:101DE0004D039ECFFD01DC01C0CF13821282D7CFFD
:101DF0004F925F926F927F928F929F92AF92BF921B
:101E0000CF92DF92EF92FF920F931F93CF93DF93C6
:101E10008C01009799F4CB01DF91CF911F910F9125
:101E2000FF90EF90DF90CF90BF90AF909F908F90FA
:101E30007F906F905F904F900C94D30DFC01E60F54
:101E4000F71F9C0122503109E217F30708F4AEC0D6
:101E5000D901CD91DC911197C617D70720F1C53074
:101E6000D10578F0CE0104978617970750F0C61B6E
:101E7000D70B2297C193D1936D937C93CF010E948E
:101E80006F0EC801DF91CF911F910F91FF90EF90DE
:101E9000DF90CF90BF90AF909F908F907F906F908A
:101EA0005F904F9008955B01AC1ABD0A4C018C0EF7
:101EB0009D1EA0914D03B0914E03512C412CF12C4D
:101EC000E12C109731F580914B0390914C038815CC
:101ED000990509F05CC04616570608F058C0809175
:101EE000000290910102009741F48DB79EB7409196
:101EF000040250910502841B950BE817F90708F0BE
:101F000055C0F0934C03E0934B03F9017183608358
:101F1000B8CF8D919C91119712966C901297139651
:101F20007C901397A815B90559F56C0142E0C40ED1
:101F3000D11CCA14DB0420F1AC014A195B09DA0197
:101F40001296159780F06282738251834083D90183
:101F50006D937C93E114F10471F0D7011396FC9317
:101F6000EE9312978ECF22968C0F9D1FF9019183CD
:101F70008083F301EFCFF0934E03E0934D0381CFC5
:101F80004816590608F42C017D01D3019ACFCB01E4
:101F90000E94D30D7C01009749F0AE01B8010E9468
:101FA000D90FC8010E946F0E87016BCF10E000E0CF
:101FB00068CFFB01DC0102C001900D9241505040FE
:101FC000D8F70895FB01DC0101900D920020E1F7A4
:061FD0000895F894FFCF14
:101FD60000004F0380000000000028029201BF01AC
:101FE6007502F001CE01E201000000001205920127
:101FF600AE03AD03686F6C61004573706572616E08
:04200600646F000003
:00000001FF
